:020000040800F2
:100000000000022081050008C5050008C50500089C
:10001000C5050008C5050008C5050008000000006A
:10002000000000000000000000000000C5050008FE
:10003000C505000800000000C5050008C50500084A
:10004000C5050008C5050008C5050008C505000868
:10005000C5050008C5050008C5050008C505000858
:10006000C5050008C5050008C5050008C505000848
:10007000C5050008C5050008C5050008C505000838
:10008000C5050008C5050008C5050008C505000828
:10009000C5050008C5050008C5050008C505000818
:1000A000C5050008C5050008C5050008C505000808
:1000B000C5050008C5050008C5050008C5050008F8
:1000C000C5050008C5050008C5050008C5050008E8
:1000D000C5050008C5050008C5050008C5050008D8
:1000E000C5050008C5050008C5050008C5050008C8
:1000F000C5050008C5050008C5050008C5050008B8
:10010000C5050008C5050008C5050008C5050008A7
:10011000C5050008C5050008C5050008C505000897
:10012000C5050008C5050008C5050008C505000887
:10013000C5050008C5050008C5050008C505000877
:10014000C5050008C5050008C5050008C505000867
:10015000C5050008C5050008C5050008C505000857
:10016000C5050008C5050008C5050008C505000847
:10017000C5050008C5050008C5050008C505000837
:08018000C5050008C5050008D3
:1001880038B572B600F052F862B6214B00221A60F8
:10019800204B9A6812F0040F05D09A6822F00402E6
:1001A8009A6000F03AF81B4B1869844201D9201A6A
:1001B80000E0001B092803D9164B1C6900F050F811
:1001C800134D00F029F82B68012B0AD100F026F80E
:1001D80000F026F800F025F800F025F800F022F8E5
:1001E80011E0022B04D100F020F800F01DF80AE01D
:1001F800032B04D100F080F800F0BCF803E000F015
:10020800F7F800232B60024B1A680132BFE700BFE2
:100218003000002014000020704770477047704776
:10022800704770477047704770477047094B4FF0E9
:1002380055321A605A686FEA12426FEA02425A60EF
:1002480000225A61044B196841F008011960034BF8
:100258001A6070470018024034000020380000205F
:10026800214BDA6812F0030F04D0204B1A6842F0D1
:1002780004021FE01A6912F4803F17D01B490A686C
:1002880012F0080F12D01B8842F0040298420A604C
:1002980003D217490968994203D3144B22F00C0280
:1002A8001A60134B1A688018186004E00F4B1A681C
:1002B80022F004021A600D4B1B6813F0040F0A4B5E
:1002C8001A6907D042F004021A610A4B5A6942F0CF
:1002D800040206E022F004021A61064B5A6922F071
:1002E80004025A61704700BF140000203400002047
:1002F80038000020001802401B4AD36803F00303AB
:10030800022B1A4B04D01A6822F001021A6013E07B
:100318001968B2F91E0011F0010FB2F902C006D037
:1003280012791018604507DA21F0010103E08445CD
:1003380002DC41F0010119600C4B1B6813F0010F3E
:10034800094B1A6907D042F001021A61084B5A6931
:1003580042F0010206E022F001021A61044B5A69D8
:1003680022F001025A617047140000203400002076
:10037800001802401B4AD36803F00303022B1A4BF0
:1003880004D01A6822F002021A6012E01968B2F961
:100398001CC011F0020FD08806D0128994448445FD
:1003A80007DA21F0020103E0844502DB41F0020193
:1003B80019600D4B1B6813F0020F0A4B1A6907D01E
:1003C80042F002021A61094B5A6942F0020206E041
:1003D80022F002021A61054B5A6922F002025A61A0
:1003E800704700BF140000203400002000180240AD
:1003F80070470000214B9A6802F00C02042A04D0CE
:10040800082A05D01E4B1F4A29E01F4A1C4B26E02C
:100418005A68596812F4800F01F03F010AD05B68EE
:1004280047F6C07203EA0202174B9209B3FBF1F3D5
:10043800534309E05A6847F6C07302EA0303114AB6
:100448009B09B2FBF1F14B430C4A0D49526802F487
:100458004032D20B0232B3FBF2F30B6000E01A60B9
:10046800064B9A68064B02F0F00203EB1212196869
:10047800127931FA02F21A60704700BF0038024060
:10048800000000200024F40000127A00344B82B0EF
:100498001A6842F001021A6000229A60196821F075
:1004A800847121F4803119602E495960196821F44A
:1004B80080211960DA60019200921A6842F4803251
:1004C8001A60274B1B6803F400330093019B013328
:1004D8000193009B1BB9019BB3F5A06FF1D1204B91
:1004E8001B6813F4003318BF01230093009B012BF2
:1004F80030D11B4B1A6C42F080521A641A4A1168A8
:1005080041F4404111609A689A609A6842F4004246
:100518009A609A6842F4A0529A60144A5A601A681B
:1005280042F080721A600E4B1A6812F0007FFAD0FF
:100538000F4A40F2057111609A6822F003029A602E
:100548009A6842F002029A60054B9B6803F00C031C
:10055800082BF9D1074B4FF000629A6002B0704740
:100568000038024010300024007000400432410A74
:10057800003C024000ED00E0002103E00A4B5B581C
:100588004350043109480A4B42189A42F6D3094AA3
:1005980002E0002342F8043B074B9A42F9D3FFF7E5
:1005A80075FFFFF7EDFD7047C80500080000002043
:1005B80014000020140000203C000020FEE700008A
:1005C80000E1F5050000000000000000010203043E
:0405D8000607080901
:040000050800018866
:00000001FF
