:020000040800F2
:100000000000022001080008450800084508000813
:1000100045080008450800084508000800000000E1
:10002000000000000000000000000000450800087B
:1000300045080008000000004508000845080008C1
:10004000450800084508000845080008450800085C
:10005000450800084508000845080008450800084C
:10006000450800084508000845080008450800083C
:10007000450800084508000845080008450800082C
:10008000450800084508000845080008450800081C
:10009000450800084508000845080008450800080C
:1000A00045080008450800084508000845080008FC
:1000B00045080008450800084508000845080008EC
:1000C00045080008450800084508000845080008DC
:1000D00045080008450800084508000845080008CC
:1000E00045080008450800084508000845080008BC
:1000F00045080008450800084508000845080008AC
:10010000450800084508000845080008450800089B
:10011000450800084508000845080008450800088B
:10012000450800084508000845080008450800087B
:10013000450800084508000845080008450800086B
:10014000450800084508000845080008450800085B
:10015000450800084508000845080008450800084B
:10016000450800084508000845080008450800083B
:10017000450800084508000845080008450800082B
:080180004508000845080008CD
:1001880070B572B600F026F962B6234B00221A60E9
:1001980000F03AF9214B1A6F12F0040F04D022F044
:1001A80004021A6700F03DF81C4BDC6FA64201D927
:1001B800351B00E0A51B092D06D9284600F050F98B
:1001C800284600F063F82646134C00F029F8236807
:1001D800012B0AD100F0EAF800F024F800F023F827
:1001E80000F022F800F021F811E0022B04D100F011
:1001F800F0F800F0EDF80AE0032B04D100F080F9E4
:1002080000F0C0F903E000F0FFF900232360024B7F
:100218001A680132BBE700BF140000201C00002050
:100228007047704770477047704737B5164C1021B4
:1002380004F19203009300224FF48063B4F90E0195
:1002480000F0EFF9D4F8D43085B213F0010F1AD0CA
:1002580004F1B203009310216FF027027823B4F958
:10026800FA0000F0DEF9B4F890204FF47A735A439C
:1002780080B24243B4F8D21092FBF3F393FBF1F34C
:100288005D19A4F8F4503EBD1C000020F7B5434C9E
:100298000546B4F8FE30B4F8FC00C01A638D00B20D
:1002A80098423EDB04F130031021002200934FF402
:1002B800807300F0B6F904F150031021002287B2D0
:1002C800B4F9F80000934FF4FA5300F0AAF910219A
:1002D800782386B26FF02702B4F9FA0070340094DC
:1002E80000F09FF97E434FF47A7396FBF3F680B2E1
:1002F80046432B4A96FBF3F311889BB2994238BFC9
:100308001380264B274A998D1180274A116841F09E
:1003180001011160D3F8DC2042F00102C3F8DC20AF
:100328000EE02149086810F0010F09D01D4B1A880A
:10033800954203D320F00100086001E0521B1A80A7
:10034800164BD3F8DC2012F0010F20D0164A1268A1
:1003580012F0010F1BD1DA8D4FF6FF739D4201D9C0
:100368001D4603E055439D4228BF1D460C4B1A8885
:10037800954202D2551B1D8009E04FF000021A80F9
:10038800064BD3F8D42022F00102C3F8D420044A43
:10039800024B1288A3F8EA20FEBD00BF1C00002013
:1003A80030010020180000202C01002013B5074C54
:1003B800102104F10A030093B4F9FA006FF0270240
:1003C800782300F02EF9A4F8EC001CBD1C000020D6
:1003D80070477047094B4FF055321A605A686FEAF8
:1003E80012426FEA02425A6000225A61044B1968AD
:1003F80041F008011960034B1A6070470018024069
:100408002C01002034010020124BD3F8D820124BC5
:1004180012F4803F196814BF41F0100121F0100157
:1004280019600D4B1B6813F0100F0A4B08D042F0EF
:100438000802C3F8D820094B5A6942F0080207E0BD
:1004480022F00802C3F8D820044B5A6922F00802A7
:100458005A6170471C0000202C010020001802403F
:10046800234BD3F8D42012F0030F04D0214B1A6881
:1004780042F0040220E0D3F8D82012F4803F17D0CD
:100488001C490A6812F0080F12D01B8842F00402B7
:1004980098420A6003D218490968994203D3154B58
:1004A80022F00C021A60144B1A688018186004E0D5
:1004B800104B1A6822F004021A600E4B1B6813F0E6
:1004C800040F0B4BD3F8D82008D042F00402C3F82D
:1004D800D8200A4B5A6942F0040207E022F00402CD
:1004E800C3F8D820054B5A6922F004025A617047B4
:1004F8001C0000202C0100203401002000180240BC
:100508001D4AD2F8D43003F00303022B1B4B04D04E
:100518001A6822F001021A6013E01968B2F9FA00A9
:1005280011F0010FB2F902C006D012791018604517
:1005380007DA21F0010103E0844502DC41F0010102
:1005480019600E4B1B6813F0010F0B4BD3F8D82022
:1005580008D042F00102C3F8D820094B5A6942F08A
:10056800010207E022F00102C3F8D820044B5A69BF
:1005780022F001025A6170471C0000202C01002063
:10058800001802401D4AD2F8D43003F00303022BAE
:100598001B4B04D01A6822F002021A6012E0196894
:1005A800B2F9F8C011F0020FD08806D0128994442D
:1005B800844507DA21F0020103E0844502DB41F0BB
:1005C800020119600E4B1B6813F0020F0B4BD3F896
:1005D800D82008D042F00202C3F8D820094B5A6943
:1005E80042F0020207E022F00202C3F8D820054BCD
:1005F8005A6922F002025A61704700BF1C000020AD
:100608002C010020001802407047C01A521A5043AB
:10061800BDF900C0C3EB0C0390FBF3F0401800B227
:10062800704730B59042039C01DC20881FE09A1A7D
:1006380092FBF1F292B215B25B1B984203DB0139CF
:1006480034F8110013E090FBF5F3DBB21FFA82FCDB
:100658005D1C34F9131034F915200CFB03F305FB6A
:100668000CF51BB22DB20395BDE83040CDE700B2C2
:1006780030BD0000214B9A6802F00C02042A04D015
:10068800082A05D01E4B1F4A29E01F4A1C4B26E0AA
:100698005A68596812F4800F01F03F010AD05B686C
:1006A80047F6C07203EA0202174B9209B3FBF1F353
:1006B800534309E05A6847F6C07302EA0303114A34
:1006C8009B09B2FBF1F14B430C4A0D49526802F405
:1006D8004032D20B0232B3FBF2F30B6000E01A6037
:1006E800064B9A68064B02F0F00203EB12121968E7
:1006F800127931FA02F21A60704700BF00380240DE
:10070800000000200024F40000127A00344B82B06C
:100718001A6842F001021A6000229A60196821F0F2
:10072800847121F4803119602E495960196821F4C7
:1007380080211960DA60019200921A6842F48032CE
:100748001A60274B1B6803F400330093019B0133A5
:100758000193009B1BB9019BB3F5A06FF1D1204B0E
:100768001B6813F4003318BF01230093009B012B6F
:1007780030D11B4B1A6C42F080521A641A4A116825
:1007880041F4404111609A689A609A6842F40042C4
:100798009A609A6842F4A0529A60144A5A601A6899
:1007A80042F080721A600E4B1A6812F0007FFAD07D
:1007B8000F4A40F2057111609A6822F003029A60AC
:1007C8009A6842F002029A60054B9B6803F00C039A
:1007D800082BF9D1074B4FF000629A6002B07047BE
:1007E8000038024010300024007000400432410AF2
:1007F800003C024000ED00E0002103E00A4B5B589A
:100808004350043109480A4B42189A42F6D3094A20
:1008180002E0002342F8043B074B9A42F9D3FFF762
:1008280075FFFFF7ADFC704748080008000000207E
:10083800140000201400002038010020FEE700000A
:1008480000E1F505000000000000000001020304BB
:04085800060708097E
:040000050800018866
:00000001FF
