:020000040800F2
:10000000000002207D040008C1040008C1040008AB
:10001000C1040008C1040008C10400080000000079
:10002000000000000000000000000000C104000803
:10003000C104000800000000C1040008C104000859
:10004000C1040008C1040008C1040008C10400087C
:10005000C1040008C1040008C1040008C10400086C
:10006000C1040008C1040008C1040008C10400085C
:10007000C1040008C1040008C1040008C10400084C
:10008000C1040008C1040008C1040008C10400083C
:10009000C1040008C1040008C1040008C10400082C
:1000A000C1040008C1040008C1040008C10400081C
:1000B000C1040008C1040008C1040008C10400080C
:1000C000C1040008C1040008C1040008C1040008FC
:1000D000C1040008C1040008C1040008C1040008EC
:1000E000C1040008C1040008C1040008C1040008DC
:1000F000C1040008C1040008C1040008C1040008CC
:10010000C1040008C1040008C1040008C1040008BB
:10011000C1040008C1040008C1040008C1040008AB
:10012000C1040008C1040008C1040008C10400089B
:10013000C1040008C1040008C1040008C10400088B
:10014000C1040008C1040008C1040008C10400087B
:10015000C1040008C1040008C1040008C10400086B
:10016000C1040008C1040008C1040008C10400085B
:10017000C1040008C1040008C1040008C10400084B
:08018000C1040008C1040008DD
:1001880008B572B600F026F862B60C4B9B6800F012
:1001980017F800F017F800F017F800F016F800F05C
:1001A80016F800F013F800F014F800F011F800F059
:1001B80021F800F05DF800F099F8E6E71400002057
:1001C800704770477047704770477047704770476F
:1001D80070477047064B4FF055321A605A686FEAFD
:1001E80012426FEA02425A6000225A61704700BF09
:1001F800001802401B4A936803F00303022B1A4BB2
:1002080004D01A6822F001021A6013E01968B2F9E2
:10021800120011F0010FB2F900C006D09278101840
:10022800604507DA21F0010103E0844502DC41F072
:10023800010119600C4B1B6813F0010F094BDA68B8
:1002480007D042F00102DA60084B5A6942F0010215
:1002580006E022F00102DA60044B5A6922F001023A
:100268005A61704714000020240000200018024042
:100278001B4A936803F00303022B1A4B04D01A6835
:1002880022F002021A6012E01968B2F910C011F0E7
:10029800020F908806D0D2889444844507DA21F06A
:1002A800020103E0844502DB41F0020119600D4BB5
:1002B8001B6813F0020F0A4BDA6807D042F00202FB
:1002C800DA60094B5A6942F0020206E022F00202A3
:1002D800DA60054B5A6922F002025A61704700BF82
:1002E800140000202400002000180240704700007D
:1002F800214B9A6802F00C02042A04D0082A05D07F
:100308001E4B1F4A29E01F4A1C4B26E05A685968B1
:1003180012F4800F01F03F010AD05B6847F6C07203
:1003280003EA0202174B9209B3FBF1F3534309E0C6
:100338005A6847F6C07302EA0303114A9B09B2FBE5
:10034800F1F14B430C4A0D49526802F44032D20B8A
:100358000232B3FBF2F30B6000E01A60064B9A68B6
:10036800064B02F0F00203EB12121968127931FA07
:1003780002F21A60704700BF0038024000000020F7
:100388000024F40000127A00344B82B01A6842F05C
:1003980001021A6000229A60196821F0847121F420
:1003A800803119602E495960196821F4802119603B
:1003B800DA60019200921A6842F480321A60274B80
:1003C8001B6803F400330093019B01330193009BE6
:1003D8001BB9019BB3F5A06FF1D1204B1B6813F437
:1003E800003318BF01230093009B012B30D11B4B16
:1003F8001A6C42F080521A641A4A116841F440415A
:1004080011609A689A609A6842F400429A609A6801
:1004180042F4A0529A60144A5A601A6842F08072F4
:100428001A600E4B1A6812F0007FFAD00F4A40F299
:10043800057111609A6822F003029A609A6842F086
:1004480002029A60054B9B6803F00C03082BF9D154
:10045800074B4FF000629A6002B0704700380240C4
:1004680010300024007000400432410A003C024071
:1004780000ED00E0002103E00A4B5B5843500431D3
:1004880009480A4B42189A42F6D3094A02E0002367
:1004980042F8043B074B9A42F9D3FFF775FFFFF781
:1004A8006FFE7047C40400080000002014000020FC
:0C04B8001400002028000020FEE70000D7
:1004C40000E1F50500000000000000000102030443
:0404D4000607080906
:040000050800018866
:00000001FF
