:020000040800F2
:10000000000002208D060008D1060008D106000875
:10001000D1060008D1060008D10600080000000043
:10002000000000000000000000000000D1060008F1
:10003000D106000800000000D1060008D106000823
:10004000D1060008D1060008D1060008D106000834
:10005000D1060008D1060008D1060008D106000824
:10006000D1060008D1060008D1060008D106000814
:10007000D1060008D1060008D1060008D106000804
:10008000D1060008D1060008D1060008D1060008F4
:10009000D1060008D1060008D1060008D1060008E4
:1000A000D1060008D1060008D1060008D1060008D4
:1000B000D1060008D1060008D1060008D1060008C4
:1000C000D1060008D1060008D1060008D1060008B4
:1000D000D1060008D1060008D1060008D1060008A4
:1000E000D1060008D1060008D1060008D106000894
:1000F000D1060008D1060008D1060008D106000884
:10010000D1060008D1060008D1060008D106000873
:10011000D1060008D1060008D1060008D106000863
:10012000D1060008D1060008D1060008D106000853
:10013000D1060008D1060008D1060008D106000843
:10014000D1060008D1060008D1060008D106000833
:10015000D1060008D1060008D1060008D106000823
:10016000D1060008D1060008D1060008D106000813
:10017000D1060008D1060008D1060008D106000803
:08018000D1060008D1060008B9
:1001880038B572B600F0AEF862B6244B00221A6099
:1001980000F0C2F8224B1A6F12F0040F05D01A6F44
:1001A80022F004021A6700F03EF81D4BDC6FA542EE
:1001B80001D92C1B00E0641B092C07D9184B2046D9
:1001C800DD6F00F0D3F8204600F02FF8134C00F054
:1001D80029F82368012B0AD100F026F800F07CF8F2
:1001E80000F07BF800F07BF800F078F811E0022BC3
:1001F80004D100F076F800F073F80AE0032B04D17C
:1002080000F000F900F03CF903E000F077F9002372
:100218002360024B1A680132B9E700BFB000002022
:1002280014000020704770477047274B10B5B3F88B
:100238008A20B3F88810891A5A8909B2914215DBC5
:100248009B6F13F0010108BF204A43F0010308BF68
:1002580011801D4A1E49B2F80CC09367A1F800C06E
:100268001C490C6844F001040C600EE019490C6844
:1002780014F0010F09D0164B1A88904203D324F0CA
:1002880001040C6001E0121A1A800F4B9A6F12F0E9
:10029800010F18D00F4A126812F0010C13D1DA8935
:1002A80050434FF6FF72904228BF1046074A118804
:1002B800884202D2081A108010BDA2F800C01A6F36
:1002C80022F001021A6710BD14000020BC000020B3
:1002D800B4000020B800002070477047704770478E
:1002E80070477047094B4FF055321A605A686FEAE9
:1002F80012426FEA02425A6000225A61044B19689E
:1003080041F008011960034B1A6070470018024059
:10031800B8000020C0000020114B1A69114B12F4DC
:10032800803F196814BF41F0100121F010011960D5
:100338000C4B1B6813F0100F094B07D042F0080252
:100348001A61094B5A6942F0080206E022F00802D5
:100358001A61054B5A6922F008025A61704700BFBA
:1003680014000020B800002000180240214BDA6871
:1003780012F0030F04D0204B1A6842F004021FE069
:100388001A6912F4803F17D01B490A6812F0080F47
:1003980012D01B8842F0040298420A6003D217491F
:1003A8000968994203D3144B22F00C021A60134BCC
:1003B8001A688018186004E00F4B1A6822F00402CB
:1003C8001A600D4B1B6813F0040F0A4B1A6907D00B
:1003D80042F004021A610A4B5A6942F0040206E02C
:1003E80022F004021A61064B5A6922F004025A618B
:1003F800704700BF14000020B8000020C000002093
:10040800001802401B4AD36803F00303022B1A4B5F
:1004180004D01A6822F001021A6013E01968B2F9D0
:100428001E0011F0010FB2F902C006D0127910189F
:10043800604507DA21F0010103E0844502DC41F060
:10044800010119600C4B1B6813F0010F094B1A6965
:1004580007D042F001021A61084B5A6942F00102C2
:1004680006E022F001021A61044B5A6922F00102E7
:100478005A61704714000020B8000020001802409C
:100488001B4AD36803F00303022B1A4B04D01A68E3
:1004980022F002021A6012E01968B2F91CC011F0C9
:1004A800020FD08806D012899444844507DA21F0D7
:1004B800020103E0844502DB41F0020119600D4BA3
:1004C8001B6813F0020F0A4B1A6907D042F00202A8
:1004D8001A61094B5A6942F0020206E022F0020250
:1004E8001A61054B5A6922F002025A61704700BF2F
:1004F80014000020B80000200018024070470000D7
:10050800214B9A6802F00C02042A04D0082A05D06C
:100518001E4B1F4A29E01F4A1C4B26E05A6859689F
:1005280012F4800F01F03F010AD05B6847F6C072F1
:1005380003EA0202174B9209B3FBF1F3534309E0B4
:100548005A6847F6C07302EA0303114A9B09B2FBD3
:10055800F1F14B430C4A0D49526802F44032D20B78
:100568000232B3FBF2F30B6000E01A60064B9A68A4
:10057800064B02F0F00203EB12121968127931FAF5
:1005880002F21A60704700BF0038024000000020E5
:100598000024F40000127A00344B82B01A6842F04A
:1005A80001021A6000229A60196821F0847121F40E
:1005B800803119602E495960196821F48021196029
:1005C800DA60019200921A6842F480321A60274B6E
:1005D8001B6803F400330093019B01330193009BD4
:1005E8001BB9019BB3F5A06FF1D1204B1B6813F425
:1005F800003318BF01230093009B012B30D11B4B04
:100608001A6C42F080521A641A4A116841F4404147
:1006180011609A689A609A6842F400429A609A68EF
:1006280042F4A0529A60144A5A601A6842F08072E2
:100638001A600E4B1A6812F0007FFAD00F4A40F287
:10064800057111609A6822F003029A609A6842F074
:1006580002029A60054B9B6803F00C03082BF9D142
:10066800074B4FF000629A6002B0704700380240B2
:1006780010300024007000400432410A003C02405F
:1006880000ED00E0002103E00A4B5B5843500431C1
:1006980009480A4B42189A42F6D3094A02E0002355
:1006A80042F8043B074B9A42F9D3FFF775FFFFF76F
:1006B80067FD7047D40600080000002014000020E1
:0C06C80014000020C4000020FEE7000029
:1006D40000E1F50500000000000000000102030431
:0406E40006070809F4
:040000050800018866
:00000001FF
